:020000040800F2
:1000000000000220C50B00089D0A00089F0A000896
:10001000A10A0008A30A0008A50A000800000000C1
:10002000000000000000000000000000C1430008C4
:10003000A70A0008000000006144000827410008EA
:10004000150C0008150C0008150C0008150C00080C
:10005000150C0008150C0008150C0008150C0008FC
:10006000150C0008150C0008150C0008150C0008EC
:10007000150C0008150C0008150C0008150C0008DC
:10008000150C0008150C0008150C0008150C0008CC
:10009000150C0008150C0008150C0008150C0008BC
:1000A000150C0008150C0008150C0008150C0008AC
:1000B000150C0008150C0008150C0008150C00089C
:1000C000150C0008150C0008150C0008150C00088C
:1000D000150C0008150C0008150C0008150C00087C
:1000E000A90A0008150C0008150C0008150C0008DA
:1000F000150C0008150C0008150C0008150C00085C
:10010000150C0008150C0008150C0008150C00084B
:10011000150C0008150C0008B50A0008150C00089D
:10012000150C0008150C0008150C0008150C00082B
:10013000150C0008150C0008150C0008150C00081B
:10014000150C0008150C0008150C0008150C00080B
:10015000150C0008150C0008150C0008150C0008FB
:10016000150C0008150C0008150C0008150C0008EB
:10017000150C0008150C0008150C0008150C0008DB
:10018000150C0008150C0008150C0008150C0008CB
:10019000150C000800000000150C0008150C0008E4
:1001A000150C0008150C0008150C0008150C0008AB
:1001B000150C0008150C0008150C0008150C00089B
:1001C000150C0008150C0008150C0008150C00088B
:0801D000150C0008150C0008D5
:1001E00010B5054C237833B9044B13B10448AFF371
:1001F00000800123237010BD3C040020000000009B
:10020000305F000808B5034B1BB103490348AFF347
:10021000008008BD0000000040040020305F00089E
:1002200053B94AB9002908BF00281CBF4FF0FF315D
:100230004FF0FF3000F074B9ADF1080C6DE904CE59
:1002400000F006F8DDF804E0DDE9022304B07047B1
:100250002DE9F047089D04468E46002B4DD18A4279
:10026000944669D9B2FA82F252B101FA02F3C2F1AC
:10027000200120FA01F10CFA02FC41EA030E94403D
:100280004FEA1C48210CBEFBF8F61FFA8CF708FB5E
:1002900016E341EA034306FB07F199420AD91CEB36
:1002A000030306F1FF3080F01F81994240F21C8168
:1002B000023E63445B1AA4B2B3FBF8F008FB1033B0
:1002C00044EA034400FB07F7A7420AD91CEB0404E5
:1002D00000F1FF3380F00A81A74240F207816444B5
:1002E000023840EA0640E41B00261DB1D44000233A
:1002F000C5E900433146BDE8F0878B4209D9002D9E
:1003000000F0EF800026C5E9000130463146BDE827
:10031000F087B3FA83F6002E4AD18B4202D3824291
:1003200000F2F980841A61EB030301209E46002D40
:10033000E0D0C5E9004EDDE702B9FFDEB2FA82F295
:10034000002A40F09280A1EB0C014FEA1C471FFAF3
:100350008CFE0126200CB1FBF7F307FB131140EADA
:1003600001410EFB03F0884208D91CEB010103F1A7
:10037000FF3802D2884200F2CB804346091AA4B269
:10038000B1FBF7F007FB101144EA01440EFB00FE3D
:10039000A64508D91CEB040400F1FF3102D2A645A2
:1003A00000F2BB800846A4EB0E0440EA03409CE741
:1003B000C6F12007B34022FA07FC4CEA030C20FAEE
:1003C00007F401FA06F31C43F9404FEA1C4900FA0E
:1003D00006F3B1FBF9F8200C1FFA8CFE09FB18118B
:1003E00040EA014108FB0EF0884202FA06F20BD9FE
:1003F0001CEB010108F1FF3A80F08880884240F24E
:100400008580A8F102086144091AA4B2B1FBF9F091
:1004100009FB101144EA014100FB0EFE8E4508D98C
:100420001CEB010100F1FF346CD28E456AD9023811
:10043000614440EA0840A0FB0294A1EB0E01A142F6
:10044000C846A64656D353D05DB1B3EB080261EB64
:100450000E0101FA07F722FA06F3F1401F43C5E93E
:10046000007100263146BDE8F087C2F12003D84074
:100470000CFA02FC21FA03F3914001434FEA1C47B6
:100480001FFA8CFEB3FBF7F007FB10360B0C43EAA8
:10049000064300FB0EF69E4204FA02F408D91CEB58
:1004A000030300F1FF382FD29E422DD90238634456
:1004B0009B1B89B2B3FBF7F607FB163341EA0341F6
:1004C00006FB0EF38B4208D91CEB010106F1FF3845
:1004D00016D28B4214D9023E6144C91A46EA00463C
:1004E00038E72E46284605E70646E3E61846F8E6CE
:1004F0004B45A9D2B9EB020864EB0C0E0138A3E717
:100500004646EAE7204694E74046D1E7D0467BE7F7
:10051000023B614432E7304609E76444023842E76F
:10052000704700BF844641EA000313F003036DD116
:10053000403A41D351F8043B40F8043B51F8043BA6
:1005400040F8043B51F8043B40F8043B51F8043BAD
:1005500040F8043B51F8043B40F8043B51F8043B9D
:1005600040F8043B51F8043B40F8043B51F8043B8D
:1005700040F8043B51F8043B40F8043B51F8043B7D
:1005800040F8043B51F8043B40F8043B51F8043B6D
:1005900040F8043B51F8043B40F8043B51F8043B5D
:1005A00040F8043B51F8043B40F8043B51F8043B4D
:1005B00040F8043B403ABDD2303211D351F8043BED
:1005C00040F8043B51F8043B40F8043B51F8043B2D
:1005D00040F8043B51F8043B40F8043B103AEDD29C
:1005E0000C3205D351F8043B40F8043B043AF9D2ED
:1005F000043208D0D2071CBF11F8013B00F8013BC0
:1006000001D30B8803806046704700BF082A13D3CC
:100610008B078DD010F003038AD0C3F10403D21AE4
:10062000DB071CBF11F8013B00F8013B80D331F818
:10063000023B20F8023B7BE7043AD9D3013A11F898
:10064000013B00F8013BF9D20B7803704B78437003
:100650008B7883706046704730B52DED048B85B084
:1006600000240294182301934FF6FF73009323464E
:10067000304A21461E2001F03DFB3FE007EE904A44
:10068000F8EEE78A9FED2C0A68EE808AB2EE048AC3
:1006900028EE880A9FED299A20EE090A00F028FB2F
:1006A00020EE088A9FED260A38EE008A9FED250A83
:1006B00028EE800A20EE090A00F01AFBF3EE047A15
:1006C00020EE270A38EE008A9FED1F0A28EE800AE6
:1006D00020EE090A00F0C0FAF3EE0E7A20EE270AA7
:1006E000620038EE008A194B03EBC40181ED008AE9
:1006F000013203EB820300221A600134B4F5806FEB
:10070000BCDB134C01221146204601F03FFE0F4D89
:100710000123002229460F4801F084F94FF480623A
:100720000D49284600F077FA00220121204601F009
:100730002DFEE6E7485F0008DB0FC9400000803A65
:100740000000C842000048420000964358040020C0
:1007500000080048A86D00085824002008B5044A85
:100760000021044803F01AFD034B186008BD00BFC8
:100770005C5F0008590600085834002010B58AB0A4
:100780000024059406940794089409941C4BDA6C91
:1007900042F00402DA64DA6C02F004020192019A77
:1007A000DA6C42F02002DA64DA6C02F02002029283
:1007B000029ADA6C42F00102DA64DA6C02F00102A9
:1007C0000392039ADA6C42F00202DA64DB6C03F003
:1007D00002030493049B4FF4005305934FF48813D2
:1007E000069305A9074801F0E7FC224605212820C9
:1007F00001F09CFC282001F0D1FC0AB010BD00BF24
:10080000001002400008004830B587B00024019471
:1008100002940394049405940D4BDA6C42F00402A4
:10082000DA64DB6C03F004030093009B094D22465D
:100830000121284601F0AAFD0123019302930394AC
:100840000223049301A9284601F0B6FC07B030BD8D
:10085000001002400008004808B50268034B9A42A5
:1008600000D008BD01F02AFCFBE700BF00100040EB
:1008700072B6FEE700B595B03822002106A805F053
:1008800095FA00200190029003900490059001F0E9
:1008900091FD022306934FF48072099240220A923E
:1008A0000D930E9304220F925522109211931293DE
:1008B000139306A801F038FE80B90F230193032398
:1008C0000293002303930493059304210DEB01008D
:1008D00002F0E0F820B915B05DF804FBFFF7C8FF9F
:1008E000FFF7C6FF08B501F0D9FBFFF7C3FFFFF71D
:1008F00045FF00F0F1F800F00DF84FF6FF7001F041
:100900001BFAFFF781FF03F01BFCFFF727FF03F043
:1009100029FCFEE708B51048104B03604FF48273C2
:100920004360002383604FF4E062C260036143616F
:100930004FF4007282611022C261036243628362DB
:100940000722C26203630823436302F0B8FC00B9C4
:1009500008BDFFF78DFFFBE75C340020003001404D
:1009600000B589B00023039304930593069307937E
:100970000268134B9A4202D009B05DF804FB03F5FC
:1009800060431A6E42F480521A661A6E02F4805264
:100990000192019ADA6C42F00102DA64DB6C03F036
:1009A00001030293029BA0230393022304930523D4
:1009B000079303A94FF0904001F0FEFBDCE700BF76
:1009C0000030014000B583B00E4B1A6E42F00102B8
:1009D0001A661A6E02F001020092009A9A6D42F0B5
:1009E00080529A659B6D03F080530193019B002216
:1009F0000F216FF0010001F099FB01F061FD03B0E0
:100A00005DF804FB0010024030B589B004461E4B6F
:100A10009A6D42F010029A659B6D03F010030193EA
:100A2000019B02A903A802F05BF902F035F9034625
:100A30001648A0FB03239B0C013B1548154A026096
:100A400040F2E732C260436000230361836002F03A
:100A500067FF054610B1284609B030BD0C4802F0CA
:100A6000A3FD05460028F6D1362001F097FB0F2C98
:100A700001D90125EFE700222146362001F056FB7F
:100A8000054B1C60E7E700BF0010024083DE1B43FC
:100A9000C03400200010004008000020FEE7FEE700
:100AA000FEE7FEE7FEE7704708B54FF4005001F09F
:100AB00073FC08BD08B5024802F0C4FD08BD00BFC4
:100AC000C0340020034AD2F8883043F47003C2F8DF
:100AD0008830704700ED00E008B51748174B0360F9
:100AE0004FF4E133436000238360C36003610C2251
:100AF0004261836103624362836203F052FA70B918
:100B000000210D4803F0C5FA60B900210A4803F03E
:100B1000E5FA50B9084803F09DFA48B908BDFFF757
:100B2000A7FEEDE7FFF7A4FEEFE7FFF7A1FEF1E771
:100B3000FFF79EFEF2E700BF0C350020008000406A
:100B400010B59CB0044600211791189119911A9183
:100B50001B91542202A805F029F92268174B9A42EA
:100B600001D01CB010BD2023029302A802F0D6F8D9
:100B700000BB134BDA6D42F00102DA65DA6D02F068
:100B800001020092009ADA6C42F00102DA64DB6C36
:100B900003F001030193019B0C2317930222189287
:100BA000002219921A921B9317A94FF0904001F05E
:100BB00003FBD6E7FFF75CFEDBE700BF00800040E9
:100BC000001002400D488546FFF77CFF0C480D4998
:100BD0000D4A002302E0D458C4500433C4188C4298
:100BE000F9D30A4A0A4C002301E013600432A242FE
:100BF000FBD305F0B7F8FFF775FEFEE70000022013
:100C0000000000203C04002008CA00083C0400202A
:100C1000F84B0020FEE706E04FF0000CC1F800C0E2
:100C2000013A01461846B2B103460833D0ED007AC6
:100C300090ED017A67EEA77A27EE077A77EE877A4A
:100C4000081DF5EEC07AF1EE10FAE5DBF1EEE77A79
:100C5000C1ED007AE4E77047DFED227A20EE270A43
:100C6000F5EE007A30EE270AFDEEC07AB5EEC00A46
:100C7000F1EE10FA2FD4F8EEE77A30EE670ADFEDE6
:100C80001A7A20EE270AFCEEC07A17EE903A9BB251
:100C9000B3F5007F04D3DFED147A30EE670A00234A
:100CA00007EE903AF8EE677A30EE670A0F4A02EBE9
:100CB0008301D1ED006A013302EB830393ED007AE7
:100CC000F7EE007A77EEC07A67EEA67A20EE070A92
:100CD00037EE800A704717EE903A013B07EE903AE4
:100CE000C9E700BF83F9223E00000044B86D000848
:100CF000DFED207A20EE270AFDEEC07AB5EEC00ABD
:100D0000F1EE10FA2FD4F8EEE77A30EE670ADFED55
:100D10001A7A20EE270AFCEEC07A17EE903A9BB2C0
:100D2000B3F5007F04D3DFED147A30EE670A0023B9
:100D300007EE903AF8EE677A30EE670A0F4A02EB58
:100D40008301D1ED006A013302EB830393ED007A56
:100D5000F7EE007A77EEC07A67EEA67A20EE070A01
:100D600037EE800A704717EE903A013B07EE903A53
:100D7000C9E700BF83F9223E00000044B86D0008B7
:100D800030B54FF0000E1DE032F81EC04FEA9C0C4B
:100D90000EF1010332F813309B0850F82C4050F844
:100DA000235040F82C5040F823400CF1010C50F82F
:100DB0002C40013350F8235040F82C5040F8234089
:100DC0000EF1020E7145DFD830BD00002DE9F04F65
:100DD0002DED0E8B8DB08146079108920B930691F5
:100DE000069B4FEAD30A4FF0000E0EEB0A010EEB02
:100DF0004A030AEB030503EB4A020AEB020602EB85
:100E00004A070AEB070B4FEACE0809EBCE0090ED3C
:100E1000007A4FEAC20C09EBC202D2ED007A77EEFB
:100E2000276A37EE677ACC00019409EBC101029181
:100E3000D1ED005AF10009EBC6060396D6ED007A13
:100E400035EEA76A75EEE75ADE0009EBC30393EDB2
:100E5000005AFC00049409EBC707D7ED007A75EE41
:100E6000274A75EE677AEC00059409EBC5050995EC
:100E7000D5ED003A4FEACB040A9409EBCB0B9BED7E
:100E8000004A33EE845A73EEC43A76EEE40A76EE04
:100E9000A46A36EE451A36EE056A36EE865A80EDBD
:100EA000005A76EEC66AC2ED006A08F10408C8442A
:100EB00098ED006A0CF1040CCC44DCED006A36EECF
:100EC000265A76EE664A019C04344C4494ED006A3E
:100ED00004314944D1ED006A36EE263A36EE666AB0
:100EE00004364E4496ED004A049A151D4D44D5ED46
:100EF000006A34EE262A34EE664A059A04324A44E1
:100F0000D2ED006A0A9804304844D0ED002A76EE0B
:100F1000A21A76EEE26A75EE422A35EE025A33EEF6
:100F2000612A33EE213A75EE031AC8ED001A35EE48
:100F3000435A8CED005A30EE825A83ED005A30EE5F
:100F4000C23A87ED003A32EEC15A86ED005A31EED0
:100F5000225A85ED005A35EEE35ADFEDF12A25EEEF
:100F6000225A75EEA35A65EEA25A36EE663A23EE81
:100F7000223A76EE266A66EEA26A77EE453A37EEB8
:100F8000057A37EEE55A77EEA57A74EEC35A34EE59
:100F9000836A74EE664A74EE266A37EE264A029B2E
:100FA00083ED004A37EE667A8BED007A33EEA47A51
:100FB000039E86ED007A73EEE43A099DC5ED003A92
:100FC00036EE677A84ED007A77EE867AC0ED007AA5
:100FD00075EEC57AC1ED007A35EE255A82ED005ADC
:100FE000069B9E44079B73453FF6FFAEBAF1070F81
:100FF00040F2BA8101230A9300230993D046099C49
:101000000B9B1C4404EB440204EB8403E71803EB42
:101010004406E500089800EBC401D1ED008A2146A2
:101020002401099100EB011191ED008A4FEAC20CF5
:1010300000EBC20292ED000A09984101089A02EB06
:101040004012D2ED000ADA00089800EBC30393EDDA
:10105000001AFB0000EBC707D7ED001AF70000EB02
:10106000C60696ED002A043506460544D5ED002A4D
:101070000434044494ED003A0CF104003044D0ED03
:10108000003A0431314491ED004A04323244D2ED49
:10109000004A0433334493ED005A04373744D7ED04
:1010A000005A0A9B9A460AEB08000AEB480308EB31
:1010B000030403EB480208EB020602EB480108EBCD
:1010C000010B4FEACA0E09EBCA0595ED009A4FEAEB
:1010D000C20C09EBC202D2ED007A79EE276A39EE32
:1010E00067AAC700019709EBC000029090ED006A63
:1010F000F00009EBC6060396D6ED007A36EE277AA5
:1011000036EE67CADF0009EBC30393ED006ACE0039
:1011100009EBC1010491D1ED007A76EE279A76EEC3
:10112000677AE10009EBC4040594D4ED00AA4FEA04
:10113000CB0409EBCB0B9BED006A3AEE869A3AEEB4
:10114000C66A36EEE9DA76EEA96A37EE49EA37EE94
:10115000097A36EE879A85ED009A76EEC7EA0EF1A7
:10116000040ECE449EED00BA0CF1040CCC44DCED30
:10117000006A3BEE267A3BEE66BA019D04354D448B
:10118000D5ED00BA04304844D0ED006A7BEEA6CA23
:101190007BEEE6BA04374F44D7ED00AA04364E443E
:1011A000D6ED006A7AEEA69A7AEEE6AA04314944B0
:1011B00091ED009A04344C44D4ED006A79EE26DABD
:1011C00079EE666A37EE699A37EE297A7CEEED9A07
:1011D0007CEEADCA7DEE29DA3DEE69DA77EE2C9A27
:1011E000CEED009A37EE6C7A79EE4E9A3EEE099A81
:1011F00060EEAECA24EE07EA20EE877A64EE2EEAAD
:101200007CEE8ECAC2ED00CA37EE6E7A8CED007AA3
:1012100028EE2D7A63EE29CA68EE299A63EE2DDA5C
:1012200037EE2C7A83ED007A79EEED9AC7ED009ACD
:1012300021EE8D7A65EE099A21EE899A25EE0DDA76
:1012400037EE297A049A82ED007A39EE4D9A86EDCE
:10125000009A3CEE469A9FED327A29EE079A3CEED0
:10126000066A26EE076A3BEEE6CA2CEE07CA7BEE5C
:10127000A66A66EE876A7AEE499A3AEE099A77EE9E
:10128000C6BA77EE867A7BEE4CCA3BEE0C6A3AEE33
:10129000E6AA7AEEA66A39EE26BA39EE667A79EED1
:1012A0008AAA79EECA9A76EE676A77EE867A3CEE7B
:1012B000EBAA3BEEAC9A28EE8B6A62EEA6BA68EE19
:1012C000A66A22EE8BBA36EE2B6A029B83ED006A89
:1012D00076EECB6AC5ED006A62EE076A25EEA7BA24
:1012E00062EE277A25EE876A36EE8B7A8BED007AEE
:1012F00077EEC67AC4ED007A61EE2A7A24EE8A6A25
:1013000021EE0A7A64EEAA6A77EE867A039EC6ED2B
:10131000007A37EE667A80ED007A60EE296A01E0A5
:10132000F304353F23EE896A60EE097A23EEA97A49
:1013300076EE866A059CC4ED006A77EEC77AC1ED49
:10134000007A069B9A44079B53453FF6ACAE0A9B36
:1013500001330A9398453FF652AE0B9BDB009BB2DC
:101360000B93CDF818803BE50DB0BDEC0E8BBDE8BE
:10137000F08F00BF2DE9F0412DED028B90B00646B5
:101380000846358801EB850774684FEA550801EB7C
:10139000880E07EB880CED083A460B46CFE093ED3C
:1013A000005A8DED0C5A93ED016A8DED0D6A93EDA7
:1013B000021A8DED0E1A93ED037A8DED0F7A92EDF0
:1013C000000A8DED080AD2ED010ACDED090A92ED71
:1013D000023A8DED0A3AD2ED031ACDED0B1A9EEDCD
:1013E000002A8DED042ADEED012ACDED052A9EEDC1
:1013F000024A8DED064ADEED034ACDED074ADCEDEB
:10140000005ACDED005ADCED016ACDED016ADCED4C
:10141000023ACDED023ADCED037ACDED037A35EEFA
:10142000008A83ED008A36EE208A83ED018A31EE50
:10143000038A83ED028A37EE218A83ED038A35EE33
:10144000405A8DED085A36EE606A8DED096A31EE2C
:10145000433A8DED0A3A37EE617A8DED0B7A72EEF2
:10146000251ACEED001A72EEA61ACEED011A74EE10
:10147000231ACEED021A74EEA71ACEED031A75EEFA
:10148000C25ACDED005A76EEE26ACDED016A73EEF6
:10149000C42ACDED022A77EEE47ACDED037AD4EDBD
:1014A000004A94ED014A65EE243A26EE042A26EE1F
:1014B000246A25EE045A73EE823AC2ED003A36EE03
:1014C000456A82ED016A25EE846A26EEA45A66EE2C
:1014D000846A65EEA45A36EE456A8CED006A76EEB3
:1014E000A56ACCED016A94ED026AD4ED035A23EEAD
:1014F000065A67EE254A27EE067A63EE256A35EE30
:10150000245A82ED025A37EE667A82ED037A62EE51
:10151000A56A27EE865A67EEA57A22EE867A76EEDF
:10152000C56ACCED026A77EE877ACCED037A013D8D
:10153000103410320CF1100C0EF1100E1033002D7F
:101540007FF42DAF1FFA88F8022372684146FFF737
:101550003DFC0223726841463846FFF737FC10B065
:10156000BDEC028BBDE8F0812DE9F04F2DED048B31
:1015700095B0054606900C46079103885B0801EB81
:101580008302039201EBC3010E46049101EB830039
:101590000590171FA0F1040C0CEB83016D685B082C
:1015A0000293234694ED007A3446A6F10408D6ED62
:1015B000007A37EE272A37EE677AD3ED017AD6ED37
:1015C000016A77EEA62A77EEE67A92ED013A73EE9B
:1015D000073AD0ED016A73EEE63ACDED103AD2ED5E
:1015E000005A37EEE54A90ED006A34EE064A8DED7A
:1015F000114A72EE654A74EEC64ACDED0C4A32EEDF
:10160000C35A35EE665A8DED0D5A37EE437A36EEF3
:10161000877A8DED087A75EEA77A77EEC67ACDEDEA
:10162000097A75EE825A36EE256A9E461E460836BF
:1016300083ED006AD2ED016A76EEA26A034690ED70
:10164000016A76EE866ACEED016A10460832C0ED78
:10165000003A80ED014A20460830C4ED004A84ED8E
:10166000015A1C46083384ED007AC4ED017A05F175
:10167000080A05F1100405F1180E029DA5F1020BF0
:101680004FEA5B0B22E1D6ED006AD0ED007A76EEF0
:10169000A73A76EEE76A96ED017AD0ED017A37EE59
:1016A000274A37EE677AD2ED017A37EEA62A93ED14
:1016B000013A32EE432A8DED102AD2ED004A77EE40
:1016C000645A93ED006A75EE865ACDED115A73EEA9
:1016D000E42A72EEC62ACDED0C2A34EE675A35EEB6
:1016E000435A8DED0D5A76EEE76A33EE263A8DEDCC
:1016F000083A34EE877A77EE467ACDED097A74EEC1
:10170000A34A36EE246A3546083586ED006A01950F
:1017100092ED017A37EE047AD3ED016A37EE267A3C
:1017200086ED017A57ED016A1CED017A76EE878A23
:1017300076EEC76A97ED007A9CED000A77EE001A04
:1017400037EE400AD8ED000A91ED001A30EEC19A4A
:1017500039EE264A8DED124A18ED018A70EE483AAC
:1017600011ED017A73EE873ACDED133A78EEC84A5F
:1017700074EEC74ACDED0E4A31EEE06A36EE416AAC
:101780008DED0F6A79EE666ACDED0A6A37EE487A1A
:1017900037EE407A8DED0B7A70EEA10A31EE201A09
:1017A000A7F1080587ED001A58ED011A71EEA81A85
:1017B00011ED011A71EE811A47ED011A0AF10809BB
:1017C000DAED001A9AED011A62EE210A25EE810A7D
:1017D00065EEA15A22EE012A70EE800A02F1080A93
:1017E000C2ED000A75EEC25AC2ED015A63EE815A8B
:1017F00024EE212A24EE014A63EEA13A75EEC25A84
:10180000A8F10806C8ED005A34EE234A08ED014A53
:1018100094ED004AD4ED015A103462EE843A25EE7C
:10182000252A25EE045A62EEA52A73EE823A024674
:101830000832C0ED003A35EE625A80ED015A26EECC
:10184000445A64EEA53A64EE844A26EE256A75EEA3
:10185000635AACF10807CCED005A36EE646A0CED21
:10186000016A9EED006ADEED015A0EF1180E23EEBC
:10187000065A67EEA54A67EE867A23EE253A35EEDC
:10188000245A1846083083ED005A77EEC37AC3ED28
:10189000017A67EE257A26EE865A66EEA56A27EE6D
:1018A000067A77EEC57AA1F1080CC1ED007A36EE22
:1018B000877A01ED017A0BF1FF3B03461046524651
:1018C000CA466146BC46B0462F46019EBBF1000F9A
:1018D0007FF4D9AE96ED004AD0ED004A34EE242ACA
:1018E00034EE644A96ED015AD0ED017A75EE272A5E
:1018F00035EE675AD2ED017A77EE845AD3ED014A7C
:1019000075EEE45ACDED105A92ED003A75EE436A49
:10191000D3ED003A76EEA36ACDED116A32EE436A5A
:1019200036EE636A8DED0C6A32EEE77A37EE647A52
:101930008DED0D7A34EE674A74EE844ACDED084A97
:1019400033EE055A75EE637ACDED097A33EE023A3D
:1019500073EE833AC6ED003A92ED015A35EE225A03
:1019600093ED014A35EE045A86ED015ADAED003A5C
:101970009AED014A25EEA35A26EE843A66EEA36A52
:1019800065EE845A35EE035A82ED005A76EEE56A2A
:10199000C2ED016A94ED005AD4ED015A66EE056A73
:1019A00027EE254A27EE057A26EE256A76EE846A2A
:1019B000C0ED006A37EE467A80ED017A9EED006A4E
:1019C000DEED016A24EE867A67EEA65A67EE867A25
:1019D00064EEA64A37EE257A83ED007A77EEE47A54
:1019E000C3ED017ABDF808400423069D6A682146CC
:1019F0000798FFF7EBF904236A6821460398FFF77D
:101A0000E5F904236A6821460498FFF7DFF9042307
:101A10006A6821460598FFF7D9F915B0BDEC048B2B
:101A2000BDE8F08F2DE9F04106460C461746984672
:101A30000588012A0FD0B5F5807F21D025D8402D0B
:101A40002AD019D9802D34D0B8F1000F36D1012F0A
:101A50003AD0BDE8F08101F1040C002109E0DCED91
:101A6000007AF1EE677A63460CF1080CC3ED007A58
:101A70000131A942F3D3DEE7102D1AD0202DE3D196
:101A800021463046FFF770FDDEE7B5F5006FF7D071
:101A900009D9B5F5805FD7D1012372682946204660
:101AA000FFF794F9D0E7B5F5007FF5D0B5F5806F75
:101AB000CAD121463046FFF75DFCC5E7B268B1895F
:101AC0002046FFF75DF9C2E707EE905AF8EE677A15
:101AD000F7EE006A86EEA77A00230DE0D4ED007AD7
:101AE00067EE877AC4ED007AD4ED017A67EEC77AA3
:101AF000C4ED017A08340133AB42EFD3A9E708B54E
:101B000000F098FA08BD08B500F0A8FA08BD10B5B5
:101B1000044600F069FA204600F08CFA00F06EFAF4
:101B200010BD08B500F04CFA08BDF8B507460D46E3
:101B300016461C462A20FFF7EAFF3846FFF7E3FF68
:101B40003046FFF7E0FF2B20FFF7E1FF05F114001F
:101B500080B2FFF7D8FF04F1140080B2FFF7D3FF83
:101B60002C20FFF7D4FFF8BD2DE9F84381460F463E
:101B700015469846BDF82060013B013A9BB292B2EF
:101B8000FFF7D3FF08E03046FFF7BDFF0134A4B2F2
:101B9000AC42F8D30137BFB2474501D24C46F7E714
:101BA000BDE8F88310B50B4614460246FFF7BDFFAB
:101BB0002046FFF7A8FF10BD2DE9F04F87B0834600
:101BC00003910093BDF8403002939DF84440019486
:101BD0009DF84890670814F00E0318BF012303EB2B
:101BE000141303FB04F30493203AD3B2059300EBE0
:101BF000540292B263189BB2013B013A9BB292B27B
:101C0000FFF793FF5E464FF0000A554649E0059BFB
:101C100003EB4303334A02EB830313F80A800024E7
:101C20001DE0314B059A03EB021313F80A80F6E727
:101C3000059B03EB43032D4A02EB031313F80A80C1
:101C4000EDE70298FFF75FFF0135EDB2B5FBF7F363
:101C500007FB135313F0FF033FD00134E4B2072C0A
:101C60001BD8B9F1000F08D148FA04F313F0010FA3
:101C7000E7D00098FFF747FFE6E748FA04F313F0D0
:101C8000010F24D10136B6B2A6EB0B03BB42E4D15F
:101C9000039B01339BB203935E460AF1010A1FFACC
:101CA0008AFA049B9A451AD2019B0C2BAFD0019B58
:101CB000102BB6D0019B182BBAD0019B202B0ED134
:101CC0000B4B059A03EB821313F80A80A7E7009ADF
:101CD00003993046FFF766FFD4E71D46DDE707B0FE
:101CE000BDE8F08FBC950008309A000820A00008DD
:101CF000F0B100082DE9F04784B004468846154647
:101D00001F46BDF830A09DF834609DF838900DE076
:101D1000CDF808900196CDF800A03B4641462046FC
:101D2000FFF74AFF04EB5604A4B201352A78002AD3
:101D3000EED104B0BDE8F08710B582B0044600F0E3
:101D4000CBF800F041F96420FFF7EBFE00F044F916
:101D50006420FFF7E6FE00F097F96420FFF7E1FE4C
:101D60001120FFF7D4FE7820FFF7DBFE3620FFF7C7
:101D7000CEFE0020FFF7C3FE3A20FFF7C8FE052085
:101D8000FFF7BDFEB220FFF7C2FE0C20FFF7B7FE43
:101D90000C20FFF7B4FE0020FFF7B1FE3320FFF761
:101DA000AEFE3320FFF7ABFEB720FFF7B0FE3520C5
:101DB000FFF7A5FEBB20FFF7AAFE3220FFF79FFE2C
:101DC000C220FFF7A4FE0120FFF799FEC320FFF712
:101DD0009EFE1520FFF793FEC420FFF798FE2020FB
:101DE000FFF78DFEC620FFF792FE0F20FFF787FE5C
:101DF000D020FFF78CFEA420FFF781FEA120FFF783
:101E00007EFEE020FFF783FED020FFF778FE08205B
:101E1000FFF775FE0E20FFF772FE0920FFF76FFE39
:101E20000920FFF76CFE0520FFF769FE3120FFF760
:101E300066FE3320FFF763FE4820FFF760FE1720A1
:101E4000FFF75DFE1420FFF75AFE1520FFF757FE3F
:101E50003120FFF754FE3420FFF751FEE120FFF759
:101E600056FED020FFF74BFE0820FFF748FE0E205D
:101E7000FFF745FE0920FFF742FE0920FFF73FFE6E
:101E80001520FFF73CFE3120FFF739FE3320FFF726
:101E900036FE4820FFF733FE1720FFF730FE1420F0
:101EA000FFF72DFE1520FFF72AFE3120FFF727FE52
:101EB0003420FFF724FE2120FFF729FE2920FFF719
:101EC00026FE00944FF48C73F02200210846FFF7A1
:101ED0004BFE02B010BD00002DE9F04188B0002398
:101EE0000393049305930693079303F1804303F54B
:101EF0000433DA6C42F00102DA64DA6C02F00102B7
:101F00000092009ADA6C42F00202DA64DA6C02F0B3
:101F100002020192019ADA6C42F00402DA64DB6C8C
:101F200003F004030293029B012240214FF09040F2
:101F300000F02CFA204F01224021384600F026FA0A
:101F400001224FF400714FF0904000F01FFA1B4E39
:101F500001228021304600F019FA4FF04008CDF8F8
:101F60000C800124049405940225069503A94FF0E2
:101F7000904000F021F9CDF80C800494059406956A
:101F800003A9384600F018F94FF400730393049442
:101F90000594069503A94FF0904000F00DF98023B9
:101FA000039304940594069503A9304600F004F9C0
:101FB00008B0BDE8F08100BF0004004800080048F8
:101FC00008B500F08DF808BD08B5002240214FF09B
:101FD000904000F0DBF908BD08B5012240214FF028
:101FE000904000F0D3F908BD08B500224021024816
:101FF00000F0CCF908BD00BF0004004808B501227C
:102000004021024800F0C2F908BD00BF00040048AA
:1020100008B500224FF400714FF0904000F0B6F97F
:1020200008BD08B501224FF400714FF0904000F058
:10203000ADF908BD00B583B08DF80700FFF7E8FFE4
:102040000A2301220DF10701034801F0ACF9FFF763
:10205000E8FF03B05DF804FB5C34002000B583B0FA
:10206000030A8DF804308DF80500FFF7D1FF0A232D
:10207000022201A9034801F096F9FFF7D2FF03B04D
:102080005DF804FB5C34002008B501228021024881
:1020900000F07CF908BD00BF0008004810B503201F
:1020A00000F032F80F20FEF7AFFC10B101242046FB
:1020B00010BD0446FEF786FCF9E70000034A1368EA
:1020C000034909680B441360704700BFA035002026
:1020D00004000020014B1868704700BFA0350020A5
:1020E00038B50446FFF7F6FF0546B4F1FF3F02D0CE
:1020F000044B1B681C44FFF7EDFF401BA042FAD3C2
:1021000038BD00BF04000020074AD36823F4E06311
:102110001B041B0C000200F4E060034343F0BF63A8
:1021200043F40033D360704700ED00E000B5194B75
:10213000DB68C3F30223C3F1070CBCF1040F28BF13
:102140004FF0040C03F1040EBEF1060F18D9033B47
:102150004FF0FF3E0EFA0CFC21EA0C0199400EFAFA
:1021600003F322EA0303194300280BDB0901C9B278
:1021700000F1604000F5614080F800135DF804FB59
:102180000023E5E700F00F000901C9B2024B195422
:10219000F4E700BF00ED00E014ED00E0002807DBED
:1021A00000F01F02400901239340024A42F8203008
:1021B000704700BF00E100E0F0B583B0002362E0AB
:1021C00085685E000324B44025EA0405CC68B44069
:1021D0002C438460446824EA0C0C4C68C4F300145B
:1021E0009C4044EA0C0444605EE0DD08083550F889
:1021F000256003F007044FEA840C0F2404FA0CF462
:1022000026EA040E0C6904FA0CF444EA0E0440F8C1
:10221000254060E0052400E0002404FA0EF42C437D
:102220000CF1020C554D45F82C40554CA568D44393
:1022300025EA02064F6817F4801F01D042EA05061E
:102240004F4DAE60ED6804EA05064F6817F4001FB5
:1022500001D042EA05064A4DEE606D6804EA0506C3
:102260004F6817F4003F01D042EA0506444D6E6006
:102270002D682C404E6816F4803F01D042EA0504D8
:102280003F4A146001330A6832FA03F474D04FF005
:10229000010C0CFA03FC1CEA0202F3D04C6804F0B7
:1022A0000304013C012C8BD94C6804F00304032C7B
:1022B0000CD0C4685D004FF0030C0CFA05FC24EA56
:1022C0000C0C8C68AC4044EA0C04C4604C6804F00C
:1022D0000304022C89D004684FEA430E4FF0030C2C
:1022E0000CFA0EFC24EA0C0C4C6804F0030404FA0B
:1022F0000EF444EA0C0404604C6814F4403FC1D06E
:10230000204C256E45F001052566246E04F001047D
:102310000194019C4FEA930C0CF10205174C54F800
:10232000255003F003044FEA840E0F2404FA0EF440
:1023300025EA0405B0F1904F3FF46EAF124CA04275
:1023400012D004F58064A04210D004F58064A0424D
:102350000ED004F58064A0420CD004F58064A04245
:102360003FF458AF062458E7012456E7022454E707
:10237000032452E7042450E703B0F0BD00000140FD
:102380000004014000100240000400480AB18161CD
:10239000704781627047704708B5054B5B6903421F
:1023A00000D108BD024B5861FFF7F5FFF9E700BF08
:1023B00000040140002836D13E4B1B6803F4C06383
:1023C000B3F5806F08D03B4AD2F8803023F4807395
:1023D000C2F8803000207047364AD2F8803023F4AB
:1023E0008073C2F88030136823F4C06343F4007331
:1023F0001360314B1B68322202FB03F32F4AA2FB0E
:1024000003239B0C013300E0013B2A4A526912F47A
:10241000806F01D0002BF7D1264B5B6913F4806FDE
:1024200044D100207047B0F5007F08D0214A1368DE
:1024300023F4C06343F480631360002070471D4B96
:102440001B6803F4C063B3F5806F08D0194AD2F853
:10245000803043F48073C2F8803000207047154A02
:10246000D2F8803043F48073C2F88030136823F4CC
:10247000C06343F4007313600F4B1B68322202FBEE
:1024800003F30E4AA2FB03239B0C013300E0013B44
:10249000084A526912F4806F01D0002BF7D1054B26
:1024A0005B6913F4806F03D10020704703207047ED
:1024B00003207047007000400000002083DE1B43B3
:1024C000024A936843F48043936070470070004071
:1024D000124BDA6802F00302D868C0F30310431C01
:1024E000032A11D00E48B0FBF3F00C4BDB68C3F3AA
:1024F000062303FB00F0094BDB68C3F341630133A0
:102500005B00B0FBF3F070470648B0FBF3F0034B01
:10251000DB68C3F3062303FB00F0ECE70010024086
:102520000024F40000366E01002800F04F8270B5E0
:1025300082B00446036813F0010F37D0A44A9368B1
:1025400003F00C03D26802F003020C2B23D0082BFB
:1025500023D06368B3F5803F4ED0B3F5A02F51D0A0
:102560009B4B1A6822F480321A601A6822F4802287
:102570001A606368002B52D0FFF7ACFD0546944B00
:102580001B6813F4003F11D1FFF7A4FD401B642822
:10259000F5D9032023E2032AD9D18D4B1B6813F40C
:1025A000003F03D06368002B00F01282236813F011
:1025B000020F5DD0864A936803F00C03D26802F0E4
:1025C00003020C2B3AD0042B3AD0E368002B75D0D1
:1025D0007F4A136843F480731360FFF77BFD054661
:1025E0007B4B1B6813F4806F5FD1FFF773FD401BBB
:1025F0000228F5D90320F2E1754A136843F48033C9
:102600001360B6E703F18043A3F53C331A6842F444
:1026100080221A601A6842F480321A60A9E7FFF734
:1026200059FD05466A4B1B6813F4003FBED0FFF707
:1026300051FD401B6428F5D90320D0E1022AC2D104
:10264000634B1B6813F4806F03D0E368002B00F02A
:10265000C1815F4A536823F0FE43216943EA016365
:1026600053605C4B1868FEF7CFF9002840F0B48146
:10267000236813F0080F4CD063699BB3544AD2F817
:10268000943043F00103C2F89430FFF723FD054670
:102690004F4BD3F8943013F0020F3AD1FFF71AFDE5
:1026A000401B0228F4D9032099E1494A536823F0DA
:1026B000FE43216943EA01635360D9E7444A136842
:1026C00023F480731360FFF705FD0546404B1B683C
:1026D00013F4806FCCD0FFF7FDFC401B0228F5D926
:1026E00003207CE13A4AD2F8943023F00103C2F887
:1026F0009430FFF7EFFC0546354BD3F8943013F0D8
:10270000020F06D0FFF7E6FC401B0228F4D9032095
:1027100065E1236813F0040F00F081802C4B9B6D62
:1027200013F0805F36D12A4B9A6D42F080529A6541
:102730009B6D03F080530193019B0125264B1B6881
:1027400013F4807F28D0A368012B39D0052B45D006
:102750001F4BD3F8902022F00102C3F89020D3F849
:10276000902022F00402C3F89020A368002B43D0ED
:10277000FFF7B0FC0646164BD3F8903013F0020F6B
:102780004CD1FFF7A7FC801B41F288339842F2D965
:10279000032024E10025D1E70F4A136843F4807336
:1027A0001360FFF797FC06460B4B1B6813F4807F02
:1027B000C9D1FFF78FFC801B0228F5D903200EE159
:1027C000034AD2F8903043F00103C2F89030CCE7CE
:1027D000001002400800002000700040884BD3F831
:1027E000902042F00402C3F89020D3F8902042F0E9
:1027F0000102C3F89020B8E7FFF76CFC0646804B57
:10280000D3F8903013F0020F08D0FFF763FC801B61
:1028100041F288339842F2D90320E0E0E5B9236819
:1028200013F0200F35D0A369E3B1754AD2F8983080
:1028300043F00103C2F89830FFF74CFC0546704B9B
:10284000D3F8983013F0020F23D1FFF743FC401B5D
:102850000228F4D90320C2E0694A936D23F0805323
:102860009365DCE7664AD2F8983023F00103C2F89A
:102870009830FFF72FFC0546614BD3F8983013F0E2
:10288000020F06D0FFF726FC401B0228F4D90320D4
:10289000A5E0E369002B00F0A180594A926802F09C
:1028A0000C020C2A64D0022B13D0554A136823F073
:1028B00080731360FFF70EFC0446514B1B6813F046
:1028C000007F4ED0FFF706FC001B0228F5D903203D
:1028D00085E04B4A136823F080731360FFF7FAFB1F
:1028E0000546474B1B6813F0007F06D0FFF7F2FB4D
:1028F000401B0228F5D9032071E0414AD3684149C1
:102900001940236A606A013843EA0013A06A43EA67
:102910000023206B4008013843EA4053606B4008B5
:10292000013843EA4063E06A43EAC0630B43D36083
:10293000136843F080731360D36843F08073D360EF
:10294000FFF7C8FB04462E4B1B6813F0007F06D12F
:10295000FFF7C0FB001B0228F5D903203FE0002051
:102960003DE0274AD168284B0B40D360002036E079
:10297000012B36D0224BDB6803F00301226A91421F
:1029800031D103F0F002616A0139B2EB011F2CD1A1
:1029900003F4FE42A16AB2EB012F28D103F0784282
:1029A000E16AB2EBC16F24D103F4C001226B52087B
:1029B000013AB1EB425F1ED103F0C063626B520873
:1029C000013AB3EB426F18D1002008E001207047B4
:1029D000012004E0012002E0012000E0002002B01C
:1029E00070BD0120FBE70120F9E70120F7E7012096
:1029F000F5E70120F3E70120F1E70120EFE700BF51
:102A0000001002400C809F01FCFFEEFE1E4B9B68F5
:102A100003F00C03042B33D01B4B9B6803F00C0317
:102A2000082B2FD0184B9B6803F00C030C2B01D004
:102A300000207047144BDA6802F00302D868C0F334
:102A40000310431C032A11D01048B0FBF3F00E4BC7
:102A5000DB68C3F3062303FB00F00B4BDB68C3F317
:102A6000416301335B00B0FBF3F070470848B0FBF3
:102A7000F3F0054BDB68C3F3062303FB00F0ECE740
:102A80000248704702487047001002400024F400DA
:102A900000366E01002800F0E680F8B50C460546C9
:102AA000744B1B6803F00F038B420BD2714A1368FF
:102AB00023F00F030B431360136803F00F038B42E3
:102AC00040F0D3802E6816F001065FD06B68032BB0
:102AD0002FD0022B4DD0684B1B6813F4806F00F091
:102AE000C680FFF793FF654B98424DD9624A9368C1
:102AF00023F0F00343F08003936080265E4A9368DE
:102B000023F0030369680B439360FFF7E3FA07467A
:102B1000594B9B6803F00C036A68B3EB820F35D006
:102B2000FFF7D8FAC01B41F288339842F0D903204E
:102B300078E0514B1B6813F0007F01D1012071E058
:102B4000FFF7C6FC4D4B98421AD94B4B9B6813F0CC
:102B5000F00F05D02E6816F00206CFD0AB688BB907
:102B6000454A936823F0F00343F080039360802686
:102B7000C4E7414B1B6813F4003FB2D1012051E080
:102B80000026BBE70026B9E70026B7E72B6813F05D
:102B9000020F48D013F0040F04D0374A936843F46F
:102BA000E06393602B6813F0080F06D0324A9368F5
:102BB00023F47C5343F4E06393602F4A936823F03B
:102BC000F003A9680B4393602A4B1B6803F00F03C3
:102BD000A34230D82B6813F0040F06D0264A93681E
:102BE00023F4E063E9680B4393602B6813F0080F4C
:102BF00007D0214A936823F46053296943EAC1034B
:102C00009360FFF703FF1C4B9B68C3F303131C4A3D
:102C1000D35C03F01F03D8401A4B18601A4B186896
:102C2000FDF7F2FEF8BD802ECED1134A936823F053
:102C3000F0039360C8E70F4A136823F00F032343A0
:102C40001360FFF747FA06460A4B1B6803F00F03B1
:102C5000A342BFD0FFF73EFA801B41F2883398426F
:102C6000F2D90320DEE7012070470120DAE70120D6
:102C7000D8E700BF002002400010024000B4C404A6
:102C8000805F00080000002008000020014B186849
:102C9000704700BF0000002008B5FFF7F7FF054BA5
:102CA0009B68C3F30223044AD35C03F01F03D8409C
:102CB00008BD00BF00100240905F000808B5FFF794
:102CC000E5FF054B9B68C3F3C223044AD35C03F0C2
:102CD0001F03D84008BD00BF00100240905F0008ED
:102CE0000F2303600B4B9A6802F0030242609A685C
:102CF00002F0F00282609A6802F4E062C2609B68AF
:102D0000DB0803F4E0630361034B1B6803F00F036C
:102D10000B6070470010024000200240F0B583B005
:102D20000446036813F4002F6ED0354B9B6D13F0EF
:102D3000805F1ED1324B9A6D42F080529A659B6D36
:102D400003F080530193019B01262E4A136843F43C
:102D500080731360FFF7BEF905462A4B1B6813F416
:102D6000807F08D1FFF7B6F9401B0228F5D903256B
:102D700002E00026E9E7002545BB214BD3F890305F
:102D800013F4407315D0226D9A4212D01C4AD2F827
:102D9000903023F44073D2F8901041F48031C2F89F
:102DA0009010D2F8901021F48031C2F89010C2F83F
:102DB000903013F0010F10D145B9114AD2F890307C
:102DC00023F44073216D0B43C2F89030EEB10C4AEE
:102DD000936D23F08053936517E0FFF77BF9074667
:102DE000074BD3F8903013F0020FE5D1FFF772F9DB
:102DF000C01B41F288339842F2D90325DCE700BFBB
:102E000000100240007000400025236813F0010FFD
:102E100008D09F4AD2F8883023F0030361680B433F
:102E2000C2F88830236813F0020F08D0984AD2F80D
:102E3000883023F00C03A1680B43C2F88830236864
:102E400013F0040F08D0924AD2F8883023F03003F0
:102E5000E1680B43C2F88830236813F0080F08D0EC
:102E60008B4AD2F8883023F0C00321690B43C2F8A3
:102E70008830236813F0100F08D0854AD2F88830C4
:102E800023F4407361690B43C2F88830236813F060
:102E9000200F08D07E4AD2F8883023F44063A1691D
:102EA0000B43C2F88830236813F0400F08D0784AEB
:102EB000D2F8883023F44053E1690B43C2F88830DC
:102EC000236813F0800F08D0714AD2F8883023F4B9
:102ED0004043216A0B43C2F88830236813F4807F93
:102EE00008D06B4AD2F8883023F44033616A0B4330
:102EF000C2F88830236813F4003F08D0644AD2F83F
:102F00009C3023F00303A16A0B43C2F89C30236872
:102F100013F4007F08D05E4AD2F8883023F44023AF
:102F2000E16A0B43C2F88830236813F4806F0CD039
:102F3000574AD2F8883023F44013216B0B43C2F870
:102F40008830236BB3F5801F79D0236813F4006FAA
:102F50000CD04F4AD2F8883023F44003616B0B4306
:102F6000C2F88830636BB3F5800F6DD0236813F41B
:102F7000805F0CD0464AD2F8883023F04073A16BB2
:102F80000B43C2F88830A36BB3F1807F61D0236814
:102F900013F4005F0CD03E4AD2F8883023F040632F
:102FA000E16B0B43C2F88830E36BB3F1006F55D08F
:102FB000236813F4804F0CD0354AD2F8883023F0C0
:102FC0004063216C0B43C2F88830236CB3F1006F6F
:102FD00049D0236813F4004F0CD02D4AD2F8883022
:102FE00023F04053616C0B43C2F88830636CB3F13B
:102FF000805F3DD0236813F4803F0CD0244AD2F880
:10300000883023F04043A16C0B43C2F88830A36C96
:10301000B3F1804F31D0236813F4802F0CD01C4AB9
:10302000D2F89C3023F44013E16C0B43C2F89C307F
:10303000E36CB3F5001F25D0284603B0F0BDD3687C
:1030400043F48013D36080E7D36843F48013D360E4
:103050008CE7D36843F48013D36098E7D36843F4D4
:103060008013D360A4E7D36843F48013D360B0E740
:10307000D36843F48033D360BCE7D36843F4803330
:10308000D360C8E7D36843F48013D360D4E700BFAC
:10309000001002402DE9F04782B0054688461746E9
:1030A0001E46FFF717F80A9B1B1A03EB0609FFF7EA
:1030B00011F882462B4B1B68C3F3CB3309FB03F398
:1030C00001932B689C6838EA04030CBF4FF0010C95
:1030D0004FF0000CBC4540D0B6F1FF3FF1D0FEF7F9
:1030E000F9FFA0EB0A0048450AD2B9F1000F07D05A
:1030F000019A02B14A46019B013B01939146E0E7E8
:103100002A68536823F0E00353606B68B3F5827F4D
:103110000BD0AB6AB3F5005F14D0012385F85D30A6
:10312000002385F85C30032018E0AB68B3F5004F4E
:1031300002D0B3F5806FECD12A68136823F0400306
:103140001360E6E72A68136823F4005313602A68C3
:10315000136843F400531360DFE7002002B0BDE8BA
:10316000F08700BF000000202DE9F04782B006463E
:103170000C4615461F4600238DF80330FEF7AAFFC4
:103180000A9B1B1A03EB0708FEF7A4FF8146D6F83B
:1031900000A0314B1B6803EB8303C3EBC3031B0D80
:1031A00008FB03F3019302E0B7F1FF3F12D133684C
:1031B0009B6803EA040CAC454AD0B4F5C06FF3D168
:1031C000002DF1D19AF80C30DBB28DF803309DF868
:1031D0000330E9E7FEF77EFFA0EB090040450AD285
:1031E000B8F1000F07D0019A02B14246019B013BA2
:1031F00001939046DBE73268536823F0E0035360A5
:103200007368B3F5827F0BD0B36AB3F5005F14D057
:10321000012386F85D30002386F85C30032018E037
:10322000B368B3F5004F02D0B3F5806FECD13268CC
:10323000136823F040031360E6E73268136823F451
:10324000005313603268136843F400531360DFE7E0
:10325000002002B0BDE8F0870000002070B582B009
:1032600004460D46164600920B4600224FF4C0510C
:10327000FFF77AFFB0B900962B4600228021204646
:10328000FFF708FFA8B900962B4600224FF4C06153
:103290002046FFF769FF50B1236E43F020032366F9
:1032A000032004E0236E43F020032366032002B0D2
:1032B00070BD236E43F0200323660320F7E7002848
:1032C0006FD010B50446436A33B94368B3F5827FC3
:1032D00005D00023C36102E00023036143610023A2
:1032E000A36294F85D30002B52D0022384F85D3045
:1032F0002268136823F040031360E368B3F5E06FBE
:103300004CD90022B3F5706F04D0B3F5E06F01D053
:103310000023A362636803F48273A16801F404418B
:103320000B43216901F002010B43616901F00101C6
:103330000B43A16901F400710B43E16901F038010D
:103340000B43216A01F080010B43A16A01F4005193
:1033500020680B430360638B03F00403616A01F090
:1033600010010B43616B01F008010B43E16801F4AC
:1033700070610B43216813434B602268D36923F4C7
:103380000063D36100202066012384F85D3010BD06
:1033900084F85C302046FDF7E3FAA6E74FF480524C
:1033A000B0E7012070472DE9F04383B01D4690F847
:1033B0005C30012B00F0F4800446884691460123DE
:1033C00080F85C30FEF786FE074694F85D60F6B242
:1033D000012E40F0DD80B8F1000F00F0DA80B9F185
:1033E000000F00F0D680032384F85D3000232366AD
:1033F000C4F83880A4F83C90A4F83E902364A4F864
:103400004430A4F846302365E364A368B3F5004F65
:103410001ED023681A6812F0400F03D11A6842F0D8
:1034200040021A60E368B3F5E06F44D9636813B1F2
:10343000B9F1010F20D1A26B23681288DA60A36B67
:103440000233A363E38F9BB2013B9BB2E38713E09C
:103450002268136823F0400313602268136843F462
:1034600080431360D5E7FEF735FEC01BA84202D3A8
:10347000B5F1FF3F1AD1CDB1E38F9BB2002B6FD0D6
:1034800023689A6812F0020FEDD0A26B1288DA60FE
:10349000A36B0233A363B4F83EC01FFA8CFC0CF19B
:1034A000FF3C1FFA8CFCA4F83EC0E5E7012384F83A
:1034B0005D3003266DE0636813B1B9F1010F32D1BD
:1034C000E38F9BB2012B0CD9A26B23681288DA60C0
:1034D000A36B0233A363E38F9BB2023B9BB2E387F0
:1034E00021E0A26B236812781A73A36B0133A363E4
:1034F000E38F9BB2013B9BB2E38714E0A36B1B7885
:103500001373A36B0133A363E38F9BB2013B9BB2A5
:10351000E38708E0FEF7DEFDC01BA84202D3B5F149
:10352000FF3F18D1BDB1E38F9BB2CBB12268936846
:1035300013F0020FEED0E38F9BB2012BDED9A36B09
:103540001B88D360A36B0233A363E38F9BB2023B60
:103550009BB2E387E7E7012384F85D30032618E098
:103560003A4629462046FFF779FE08B12023236614
:10357000A36833B901932368DA6801929B680193C9
:10358000019B236E2BB9012384F85D30002600E0F7
:103590000226002384F85C30304603B0BDE8F08397
:1035A0000226F9E77047000090F83D30DBB2012BAE
:1035B0003AD1022380F83D300268D36843F001031A
:1035C000D36003681B4A934220D0B3F1804F1DD0D3
:1035D000A2F59432934219D002F58062934215D03D
:1035E00002F58062934211D002F5943293420DD0DD
:1035F00002F54062934209D002F58052934205D011
:103600001A6842F001021A600020704799680A4A5D
:103610000A40062A0AD0B2F5803F09D01A6842F063
:1036200001021A6000207047012070470020704797
:1036300000207047002C01400700010070477047D0
:103640007047704770B505460368DE681C6914F062
:10365000020F10D016F0020F0DD06FF002021A61A7
:103660000123037703689B6913F0030F7CD0FFF7F6
:10367000E6FF00232B7714F0040F12D016F0040F8E
:103680000FD02B686FF004021A6102232B772B688E
:103690009B6913F4407F6DD02846FFF7D0FF0023CD
:1036A0002B7714F0080F12D016F0080F0FD02B68EC
:1036B0006FF008021A6104232B772B68DB6913F083
:1036C000030F5ED02846FFF7BAFF00232B7714F0D4
:1036D000100F12D016F0100F0FD02B686FF01002E1
:1036E0001A6108232B772B68DB6913F4407F4FD0D6
:1036F0002846FFF7A4FF00232B7714F0010F02D018
:1037000016F0010F4BD114F4025F02D016F0800FB7
:103710004DD114F4807F02D016F0800F4FD114F0F9
:10372000400F02D016F0400F51D114F0200F02D0FC
:1037300016F0200F53D114F4801F02D016F4801F0E
:1037400055D114F4001F02D016F4001F57D114F401
:10375000800F02D016F4800F59D114F4000F02D05C
:1037600016F4000F5BD170BDFFF768FF2846FFF726
:1037700067FF7EE72846FFF761FF2846FFF760FFF7
:103780008DE72846FFF75AFF2846FFF759FF9CE7C9
:103790002846FFF753FF2846FFF752FFABE72B6899
:1037A0006FF001021A612846FDF756F8ABE72B6867
:1037B0006FF402521A61284600F0E3F8A9E72B687B
:1037C0006FF480721A61284600F0DCF8A7E72B68D6
:1037D0006FF040021A612846FFF733FFA5E72B6818
:1037E0006FF020021A61284600F0CAF8A3E72B68A0
:1037F0006FF480121A61284600F0C5F8A1E72B6823
:103800006FF400121A61284600F0BEF89FE72B689B
:103810006FF480021A61284600F0B7F89DE72B6824
:103820006FF400021A61284600F0B0F89BE7000030
:1038300003683A4A904216D0B0F1804F13D0A2F5F7
:10384000943290420FD002F5806290420BD002F584
:103850008062904207D002F59432904203D002F584
:10386000E052904203D123F070034A6813432B4A7D
:10387000904222D0B0F1804F1FD0A2F594329042F6
:103880001BD002F58062904217D002F58062904210
:1038900013D002F5943290420FD002F5406290426C
:1038A0000BD002F58062904207D002F58062904210
:1038B00003D002F50062904203D123F44073CA683A
:1038C000134323F080034A69134303608B68C36288
:1038D0000B688362114B984213D003F50063984242
:1038E0000FD003F5406398420BD003F580639842F4
:1038F00007D003F58063984203D003F50063984234
:1039000001D10B69036301234361036913F0010FC4
:1039100003D0036923F0010303617047002C0140C9
:1039200060B310B5044690F83D3013B3022384F819
:103930003D30214651F8040BFFF77AFF012384F84C
:10394000483084F83E3084F83F3084F8403084F8C2
:10395000413084F8423084F8433084F8443084F8AD
:10396000453084F8463084F8473084F83D300020F4
:1039700010BD80F83C30FFF715FED7E701207047F7
:1039800070477047704770477047704770470268CC
:1039900052E8003F23F4907342E800310029F6D149
:1039A000026802F1080353E8003F23F0805323F03C
:1039B0000103083242E800310029F1D1C36E012B26
:1039C00006D02023C0F88C300023C36643677047BD
:1039D000026852E8003F23F0100342E8003100295A
:1039E000F6D1EEE770B504460168836802691343B7
:1039F00042691343C26913430868964A024013435D
:103A00000B602268536823F44053E1680B43536012
:103A1000A1692268904B9A4201D0236A19439368A6
:103A200023F06E4323F430630B4393602268D36A20
:103A300023F00F03616A0B43D3622368874A9342E2
:103A400010D0874A934221D0864A934237D0864A83
:103A500093425CD0854A93426BD07F4A93427DD09B
:103A600010223AE002F55842D2F8882002F0030210
:103A7000032A09D8DFE802F00204870601222CE0BD
:103A800004222AE0082228E0102226E002F5E6328D
:103A9000D2F8882002F00C020C2A0ED8DFE802F0DF
:103AA000070D0D0D090D0D0D750D0D0D0B000022EF
:103AB00013E0042211E008220FE010220DE002F5CD
:103AC000E432D2F8882002F03002202A5FD01AD8DF
:103AD000002A5ED0102A5ED104225F498B4276D044
:103AE000E069B0F5004F00F0C980082A00F2348187
:103AF000DFE812F0F7001901F50032011C01320174
:103B0000320132011F01302A47D10822E5E702F5D0
:103B1000E232D2F8882002F0C002802A3FD004D8D6
:103B2000FAB3402A3FD10422D7E7C02A3DD1082268
:103B3000D3E702F5E032D2F8882002F44072B2F501
:103B4000007F34D005D8A2B3B2F5807F33D10422F0
:103B5000C3E7B2F5407F30D10822BEE702F5C83294
:103B6000D2F8882002F44062B2F5006F27D005D861
:103B70003AB3B2F5806F26D10422AEE7B2F5406FBA
:103B800023D10822A9E70222A7E70222A5E7022201
:103B9000A3E70022A1E710229FE710229DE702225F
:103BA0009BE7002299E7102297E7102295E702226F
:103BB00093E7002291E710228FE710228DE702227F
:103BC0008BE7002289E7102287E7102285E7082A81
:103BD00000F2B280DFE802F008B03BB038B0B0B01D
:103BE00005004FF4004004E0FFF756F8002800F00D
:103BF000A580626A1E4B33F81220B0FBF2F36568B1
:103C000005EB4501994200F29B80B3EB053F00F2C2
:103C10009980002633463146FCF702FB090241EA4F
:103C2000106100026B08C0182A46334641F10001BA
:103C3000FCF7F6FAA0F540720E4B9A4200F284802F
:103C40002368D860304665E0FEF7E0FECEE70A481C
:103C5000CFE700BFF369FFCF00800040003801408C
:103C60000044004000480040004C0040005000402C
:103C7000B0C90008FFFC0F000024F400082A65D832
:103C8000DFE802F0072705642A6464640B00354806
:103C900003E0FFF701F800285AD0626A324B33F88C
:103CA0001230B0FBF3F06268530803EB4000B0FB46
:103CB000F2F0A0F110024FF6EF739A424AD883B2A5
:103CC00023F00F03C0F3420018432368D86000209C
:103CD00020E0FEF7F3FFDEE7FEF798FEDBE7214882
:103CE00003E0FEF7D9FF002838D0626A1E4B33F894
:103CF0001230B0FBF3F0636800EB5300B0FBF3F05D
:103D0000A0F110024FF6EF739A4229D8236880B2CF
:103D1000D86000200123A4F86A30A4F8683000239A
:103D20006367A36770BDFEF7C9FFDCE7FEF76EFEB1
:103D3000D9E74FF40040D8E70120EBE70020E9E79E
:103D40000120E7E70120E5E70120E3E70120E1E7C3
:103D50000020DFE70120DDE70120DBE70020D9E7D5
:103D60000120D7E70024F400B0C90008836A13F0EB
:103D7000080F06D00268536823F40043816B0B439D
:103D80005360836A13F0010F06D00268536823F46E
:103D90000033C16A0B435360836A13F0020F06D0ED
:103DA0000268536823F48033016B0B435360836ACA
:103DB00013F0040F06D00268536823F48023416B8C
:103DC0000B435360836A13F0100F06D002689368A8
:103DD00023F48053C16B0B439360836A13F0200F6D
:103DE00006D00268936823F40053016C0B43936080
:103DF000836A13F0400F0AD00268536823F48013DB
:103E0000416C0B435360436CB3F5801F0BD0836A46
:103E100013F0800F06D00268536823F40023C16CAE
:103E20000B43536070470268536823F4C003816CEE
:103E30000B435360EBE72DE9F84305460E46174662
:103E40009946DDF820802C68E46936EA04030CBF4B
:103E50004FF0010C4FF0000CBC4536D1B8F1FF3FDC
:103E6000F1D0FEF737F9A0EB0900404530D8B8F1A2
:103E7000000F2FD02B681A6812F0040FE3D0802EA9
:103E8000E1D0402EDFD0DA6912F0080F11D1DA69E3
:103E900012F4006FD7D04FF400621A622846FFF781
:103EA00076FD2023C5F89030002385F88430032068
:103EB0000CE008241C622846FFF769FDC5F8904015
:103EC000002385F88430012000E00020BDE8F8835D
:103ED0000320FBE70320F9E730B583B00446002355
:103EE000C0F89030FEF7F6F805462268126812F026
:103EF000080F10D123681B6813F0040F28D120236A
:103F0000C4F88830C4F88C300020E066206784F85C
:103F1000840003B030BD6FF07E430093034600225F
:103F20004FF400112046FFF786FF0028E2D02268F8
:103F300052E8003F23F0800342E800310029F6D127
:103F40002023C4F88830002384F884300320E0E77D
:103F50006FF07E4300932B4600224FF480012046F1
:103F6000FFF769FF0028CAD0226852E8003F23F417
:103F7000907342E800310029F6D1226802F108036B
:103F800053E8003F23F00103083242E800310029E2
:103F9000F3D12023C4F88C30002384F8843003202C
:103FA000B7E778B310B50446D0F888300BB32423B4
:103FB000C4F888302268136823F001031360A36AF1
:103FC000E3B92046FFF70EFD012811D0226853689F
:103FD00023F4904353602268936823F02A0393608C
:103FE0002268136843F0010313602046FFF774FF53
:103FF00010BD80F88430FCF7A3FDD8E72046FFF71A
:10400000B5FEDEE701207047436E2BB90123A0F80F
:104010006A30A0F86830704730B403689A68C2F319
:1040200042629968490F094D6B5CDB00084C615C8A
:1040300093FBF1F3A0F86A30AB5CDB00A25C93FB6E
:10404000F2F3A0F8683030BC704700BFD0C9000858
:10405000C8C9000890F88430012B18D0012380F8DB
:1040600084302423C0F8883003681A68196821F066
:104070000101196022F000520023436601680A60C2
:104080002022C0F8882080F884301846704702202B
:10409000704738B590F88430012B1DD004460123B9
:1040A00080F884302423C0F8883003681D681A68BB
:1040B00022F001021A600268936823F060431943FA
:1040C0009160FFF7A1FF23681D602023C4F88830AA
:1040D000002084F8840038BD0220FCE738B590F851
:1040E0008430012B1DD00446012380F88430242322
:1040F000C0F8883003681D681A6822F001021A604F
:104100000268936823F0606319439160FFF77CFFB6
:1041100023681D602023C4F88830002084F88400C0
:1041200038BD0220FCE708B54FF0E0231B6901F021
:1041300097FB012800D108BD00F0C4F9FBE700009F
:10414000EFF305832BB9064B186828B901221A60D2
:1041500070476FF0050070474FF0FF30704700BFA9
:1041600000370020EFF3058373B90A4B1B68012B5E
:104170000DD110B50024084BDC77064B02221A60E3
:1041800001F0F2F8204610BD6FF0050070474FF0C7
:10419000FF3070470037002000ED00E0F0B587B039
:1041A00000240594EFF3058474BB68B322B315684B
:1041B000936903B918235C1E372C49D8546814F04E
:1041C000010F47D156696EB14FEA960C94682CB135
:1041D000D7685B2F02D9176907B1C6B92CB14FF068
:1041E000FF340EE04FF0400CF0E7D4688CB914694E
:1041F00094B14FF0FF3404E01546002418234FF02B
:10420000400C012C0AD0ACB1059807B0F0BD0124D8
:10421000F7E74FF0FF34F4E70024F2E714699268FF
:104220000292019400930B466246294601F02CF855
:104230000590E9E705AA019200930B461FFA8CF25C
:10424000294601F05CF80128DED000230593DBE766
:104250000020DAE70020D8E7034B0360034B0B6034
:1042600040231360704700BFA4360020A43500200F
:10427000034B0360034B0B6080231360704700BF48
:10428000043900200437002000F1080343604FF098
:10429000FF328260C3600361002303607047002324
:1042A0000361704743684B609A688A605160996007
:1042B0000861036801330360704730B40D68B5F1DD
:1042C000FF3F11D000F108031C465B681A68AA4240
:1042D000FAD963684B6099608C606160086103681B
:1042E0000133036030BC70470469F2E70369416839
:1042F00082688A60416851605A68824206D0002212
:1043000002611A68013A1A601868704782685A6038
:10431000F5E7000082B0002301930D4B1B68B3F159
:10432000FF3F08D04FF0500383F31188BFF36F8F26
:10433000BFF34F8FFEE74FF0500383F31188BFF3B5
:104340006F8FBFF34F8F019B002BFCD002B07047E3
:104350000C00002008480068006880F308884FF0CF
:10436000000080F3148862B661B6BFF34F8FBFF3CD
:104370006F8F00DF00BF000008ED00E0DFF80C00E9
:10438000016841F4700101607047000088ED00E0B1
:104390004FF0807340F8043C21F0010140F8081C04
:1043A000054B40F80C3C40F8202C6FF0020340F81D
:1043B000243C4438704700BF15430008000000004B
:1043C000074B19680868B0E8F04F80F30988BFF31D
:1043D0006F8F4FF0000080F311887047AFF30080BB
:1043E000C84500204FF0500383F31188BFF36F8F4F
:1043F000BFF34F8F0B4A136801331360012B00D0BA
:1044000070474FF0E023D3F8043D13F0FF0FF7D0CF
:104410004FF0500383F31188BFF36F8FBFF34F8FBB
:10442000FEE700BF0C000020094B1B6843B94FF0AA
:10443000500383F31188BFF36F8FBFF34F8FFEE7F5
:10444000013B034A13600BB983F31188704700BF27
:104450000C00002000000000000000000000000030
:10446000EFF30980BFF36F8F154B1A681EF0100F22
:1044700008BF20ED108A20E9F04F10602DE90900F7
:104480004FF0500080F31188BFF34F8FBFF36F8F51
:1044900001F0CEF84FF0000080F3118809BC1968D4
:1044A0000868B0E8F04F1EF0100F08BFB0EC108A9B
:1044B00080F30988BFF36F8F704700BFAFF30080B0
:1044C000C845002008B54FF0500383F31188BFF3AF
:1044D0006F8FBFF34F8F00F0A3FF28B14FF0E023A1
:1044E0004FF08052C3F8042D002383F3118808BDD8
:1044F0004FF0E022002313619361054B1B680549CF
:10450000A1FB03139B09013B536107231361704710
:1045100000000020D34D62104FF0E023D3F8002DAF
:104520003D4B9A421CD04FF0E023D3F8002D3B4B7B
:104530009A421ED030B583B0394B1A78D2B201926C
:10454000FF221A701B78DBB28DF803309DF8033020
:1045500003F05003334A1370334B07221A601BE0F9
:104560004FF0500383F31188BFF36F8FBFF34F8F6A
:10457000FEE74FF0500383F31188BFF36F8FBFF353
:104580004F8FFEE7284A1368013B13609DF8033004
:104590005B00DBB28DF803309DF8033013F0800F21
:1045A000F0D1214B1B68032B08D04FF0500383F34D
:1045B0001188BFF36F8FBFF34F8FFEE71B021A4ABC
:1045C000136003F4E0631360019BDBB2144A1370C1
:1045D0004FF0E024D4F8203D43F47003C4F8203DAC
:1045E000D4F8203D43F07043C4F8203DFFF780FF2E
:1045F00000250E4B1D60FFF7C1FED4F8343F43F099
:104600004043C4F8343FFFF7A5FE01F011F8FFF76F
:1046100081FE284603B030BD71C20F4170C20F4108
:1046200000E400E060390020643900200C00002024
:10463000EFF305830F2B0FD9114A9B5CDBB2114AB4
:1046400012789A4208D94FF0500383F31188BFF3D0
:104650006F8FBFF34F8FFEE74FF0E023D3F80C3D91
:1046600003F4E063084A1268934208D94FF05003FC
:1046700083F31188BFF36F8FBFF34F8FFEE770474F
:10468000F0E300E06039002064390020124A12F0A3
:10469000070F1ED0D11D21F00701C1F5406313445F
:1046A0000A460E480260002141601344083B23F093
:1046B00007030B48036059601960991A5160136031
:1046C000084B1960084B1960084B4FF000421A6004
:1046D00070474FF44063E4E76C39002080450020C8
:1046E0006839002074450020704500206C4500208A
:1046F000164B1A461B688342FBD3516802EB010C30
:10470000844509D0416800EB010C634509D0036082
:10471000904219D0106070474068014451601046C3
:10472000F0E710B40A4C2468A3420BD05B6819442C
:10473000416013681B680360904200D010605DF810
:10474000044B70470460F7E7704700BF80450020C6
:104750006839002070B5054600F054FE364B1B68E2
:10476000A3B1364B1B681D424ED135B1083515F04B
:10477000070F02D025F007050835002D46D0304B35
:104780001B68AB4251D32F4A146804E0FFF77EFF49
:10479000E7E722461C466368AB4202D22368002B3F
:1047A000F7D1254B1B68A34241D016680836236811
:1047B000136063685B1B102B10D9601910F0070F92
:1047C00008D04FF0500383F31188BFF36F8FBFF30E
:1047D0004F8FFEE743606560FFF78AFF6268184904
:1047E0000B689B1A0B60184909688B4201D2164965
:1047F0000B60124B1B681343636000232360134A52
:1048000013680133136002E0002600E0002600F088
:1048100093FE16F0070F0CD04FF0500383F311886E
:10482000BFF36F8FBFF34F8FFEE70026EFE7002641
:10483000EDE7304670BD00BF683900206C450020B0
:1048400070450020804500207445002078450020F8
:10485000002834D038B50446A0F1080550F8043CCF
:10486000174A1268134208D14FF0500383F311889E
:10487000BFF36F8FBFF34F8FFEE750F8081C41B1B5
:104880004FF0500383F31188BFF36F8FBFF34F8F47
:10489000FEE723EA020340F8043C00F0B3FD54F8BD
:1048A000041C084A13680B4413602846FFF720FFD6
:1048B000054A13680133136000F03EFE38BD7047AF
:1048C0006C450020704500207C45002010B5044652
:1048D000FFF788FDA26BE36B9A4204D00024FFF738
:1048E000A3FD204610BD0124F9E710B50446FFF7EB
:1048F00079FDA36B23B90124FFF796FD204610BD77
:104900000024F9E770B504461546866B026C5AB967
:1049100003681BB100200136A66370BD806800F0FB
:10492000AFFF0023A360F6E76DB94068FBF7FAFD1F
:10493000226C636813446360A268934219D32368AE
:1049400063602846E7E7C068FBF7ECFD226C514244
:10495000E3689B1AE3602268934202D2A3680B4487
:10496000E360022D01D00020D5E726B1013E0020F2
:10497000D1E72846CFE70020CDE70346026C6AB1B5
:1049800010B50846D9681144D9609C68A14201D38A
:104990001968D960D968FBF7C5FD10BD704738B5F7
:1049A0000546FFF71FFD95F8454064B201E0013C64
:1049B00064B2002C0ADD6B6A43B105F1240000F0FB
:1049C000B5FE0028F3D000F045FFF0E7FF2385F89F
:1049D0004530FFF729FDFFF705FD95F8444064B227
:1049E00001E0013C64B2002C0ADD2B6943B105F102
:1049F000100000F09BFE0028F3D000F02BFFF0E742
:104A0000FF2385F84430FFF70FFD38BD38B5E0B11E
:104A10000D460446FFF7E6FC2368E26B216C01FBC0
:104A20000230A0600020A0636360013A02FB013302
:104A3000E360FF2384F8443084F84530FDB92369EE
:104A400063B9FFF7F1FC012038BD4FF0500383F349
:104A50001188BFF36F8FBFF34F8FFEE704F1100093
:104A600000F064FE0028ECD04FF0E0234FF08052BD
:104A7000C3F8042DBFF34F8FBFF36F8FE1E704F14D
:104A80001000FFF701FC04F12400FFF7FDFBD8E75D
:104A900038B51D46049C0B4649B92460E063236485
:104AA00001212046FFF7B2FF84F84C5038BD226048
:104AB000F4E740B94FF0500383F31188BFF36F8FD1
:104AC000BFF34F8FFEE710B584B01C46844653B148
:104AD00092B189B94FF0500383F31188BFF36F8F00
:104AE000BFF34F8FFEE74FF0500383F31188BFF3FE
:104AF0006F8FBFF34F8FFEE76AB150230393039B81
:104B0000502B13D04FF0500383F31188BFF36F8FF6
:104B1000BFF34F8FFEE70029EFD04FF0500383F330
:104B20001188BFF36F8FBFF34F8FFEE7039B012305
:104B300084F8463000949DF818306046FFF7A8FFCF
:104B4000204604B010BDF0B585B0019288B10F4683
:104B50001D460446B1B1022D20D1E36B012B1DD0BF
:104B60004FF0500383F31188BFF36F8FBFF34F8F64
:104B7000FEE74FF0500383F31188BFF36F8FBFF34D
:104B80004F8FFEE7036C002BE5D04FF0500383F30B
:104B90001188BFF36F8FBFF34F8FFEE700F060FE09
:104BA000064658B9019B002B48D04FF0500383F3C1
:104BB0001188BFF36F8FBFF34F8FFEE700263DE0F4
:104BC0002A4639462046FFF79DFE636A7BB948B105
:104BD0004FF0E0234FF08052C3F8042DBFF34F8F06
:104BE000BFF36F8FFFF720FC012005B0F0BD04F18B
:104BF000240000F09BFD0028F4D04FF0E0234FF09C
:104C00008052C3F8042DBFF34F8FBFF36F8FE9E7D6
:104C1000FFF70AFC0020E8E702A800F0CDFD01261E
:104C200019E0002384F8443021E0002384F8453063
:104C300023E02046FFF7B3FE00F07EFCFFF7D2FB37
:104C4000A26BE36B9A42BBD3022DB9D0019B002B20
:104C5000DED0002EE0D0FFF7E7FB00F0D3FBFFF73C
:104C6000C1FB94F8442052B2B2F1FF3FD9D094F87E
:104C7000452052B2B2F1FF3FD7D0FFF7D5FB01A9D3
:104C800002A800F0A5FDD8B92046FFF71FFE0028B6
:104C9000CFD0019904F1100000F014FD2046FFF779
:104CA0007EFE00F049FC0028C8D14FF0E0234FF011
:104CB0008052C3F8042DBFF34F8FBFF36F8FBDE752
:104CC0002046FFF76CFE00F037FC00208DE72DE951
:104CD000F84390B10F4616461C460546B1B1022C6A
:104CE00020D1EB6B012B1DD04FF0500383F31188C3
:104CF000BFF36F8FBFF34F8FFEE74FF0500383F387
:104D00001188BFF36F8FBFF34F8FFEE7036C002B4B
:104D1000E5D04FF0500383F31188BFF36F8FBFF3DB
:104D20004F8FFEE7FFF784FCEFF311894FF050033C
:104D300083F31188BFF36F8FBFF34F8FAA6BEB6BB9
:104D40009A4206D3022C04D0002089F31188BDE8D2
:104D5000F88395F845804FFA88F8AB6B22463946C0
:104D60002846FFF7CFFDB8F1FF3F06D008F1010359
:104D70005BB285F845300120E7E76B6A0BB901208B
:104D8000E3E705F1240000F0D1FC18B126B10120C1
:104D90003060DAE70120D8E70120D6E7F0B585B02A
:104DA000019290B10F460446C1B100F059FD06468C
:104DB00000BB019B002B5ED04FF0500383F31188A2
:104DC000BFF36F8FBFF34F8FFEE74FF0500383F3B6
:104DD0001188BFF36F8FBFF34F8FFEE7036C002B7B
:104DE000E3D04FF0500383F31188BFF36F8FBFF30D
:104DF0004F8FFEE700263EE039462046FFF7BDFD17
:104E0000013DA563236923B9FFF70EFB012005B01F
:104E1000F0BD04F1100000F089FC0028F4D04FF040
:104E2000E0234FF08052C3F8042DBFF34F8FBFF340
:104E30006F8FE9E7FFF7F8FA0020E8E702A800F033
:104E4000BBFC012621E0002384F8443029E0002344
:104E500084F845302BE02046FFF7A1FD00F06CFB05
:104E600009E02046FFF79BFD00F066FB2046FFF7B8
:104E70003CFD00283FD1FFF7B5FAA56B002DBBD153
:104E8000019B002BD6D0002ED8D0FFF7CDFA00F032
:104E9000B9FAFFF7A7FA94F844305BB2B3F1FF3FD9
:104EA000D1D094F845305BB2B3F1FF3FCFD0FFF7DC
:104EB000BBFA01A902A800F08BFC0028D1D1204642
:104EC000FFF713FD0028C6D0019904F1240000F07B
:104ED000F9FB2046FFF763FD00F02EFB0028CAD146
:104EE0004FF0E0234FF08052C3F8042DBFF34F8FF3
:104EF000BFF36F8FBFE7002089E700000023072B77
:104F00000CD8074A52F833200AB10133F7E7044AB4
:104F100042F8331002EBC30358607047704700BF7C
:104F20008845002070B504460D461646FFF75AFA2C
:104F300094F844305BB2B3F1FF3F0DD094F84530A4
:104F40005BB2B3F1FF3F0BD0FFF76EFAA36B5BB11F
:104F50002046FFF724FD70BD002384F84430EDE7C0
:104F6000002384F84530EFE73246294604F1240057
:104F700000F0C0FBECE70000084B1B681B6823B97E
:104F8000074B4FF0FF321A607047044B1B68DB6819
:104F9000DB685A68024B1A60704700BFCC4500209E
:104FA000744A00202DE9F04780460D461746994681
:104FB000089EDDF824A00A9C9200A521206B00F039
:104FC000F5FE236B07F18042013A03EB820727F0DD
:104FD0000707B5B34FF0000CBCF10F0F0BD815F855
:104FE0000C2004EB0C0383F8342015F80C3013B1BB
:104FF0000CF1010CF0E7002384F84330372E00D980
:105000003726E662E66400252565201DFFF747F98F
:1050100004F11800FFF743F92461C6F13806A661D0
:105020006462656584F858504A4641463846FFF741
:10503000AFF92060BAF1000F01D0CAF80040BDE816
:10504000F087002384F83430D8E7000038B5002416
:1050500007E004EB840293000E481844FFF714F9AC
:105060000134372CF5D90C4D2846FFF70DF90B4CC0
:105070002046FFF709F90A48FFF706F90948FFF744
:1050800003F90948FFF700F9084B1D60084B1C6045
:1050900038BD00BFD4450020484A00205C4A0020AB
:1050A000804A0020AC4A0020984A0020CC450020CD
:1050B000D045002010B50446FFF794F9224A136842
:1050C00001331360214B1B685BB1214B1B686BB92B
:1050D0001E4B1B68DA6AE36A9A4207D81B4B1C60B6
:1050E00004E01A4B1C601368012B29D0194A13687D
:1050F000013313606364E06A174B1B68984201D95F
:10510000154B186000EB8000211D144B03EB800051
:10511000FFF7C8F8FFF788F90D4B1B687BB10B4B05
:105120001B68DA6AE36A9A4209D24FF0E0234FF033
:105130008052C3F8042DBFF34F8FBFF36F8F10BDA4
:10514000FFF784FFD2E700BF344A0020C8450020A3
:10515000944A0020404A0020444A0020D4450020C0
:1051600010B5044690F8593063B1012B11D0022BD1
:105170000ED04FF0500383F31188BFF36F8FBFF34E
:105180004F8FFEE7006BFFF763FB2046FFF760FBE6
:1051900010BDFFF75DFBFBE70F4B1B68D3B110B5EC
:1051A000FFF720F90D4BDB68DC68201DFFF79EF848
:1051B0000B4A1368013B1360074A1368013B1360F5
:1051C000FFF732F92046FFF7CBFF034B1B68002B9C
:1051D000E6D110BD704700BF384A0020AC4A00201D
:1051E000344A002008B5FFF7D7FF074B1B68012B97
:1051F000F9D94FF0E0234FF08052C3F8042DBFF3EC
:105200004F8FBFF36F8FEEE7D445002070B5044693
:105210000D46174B1E68174B18680430FFF766F8E9
:10522000B4F1FF3F0DD03444124B1B685C60A642C2
:1052300010D9114B18680F4B19680431FFF73DF86E
:1052400070BD002DEFD00B4B196804310B48FFF7F0
:1052500029F8F5E70A4B1868064B19680431FFF77F
:105260002CF8084B1B68A342EAD9064B1C60E7E701
:10527000C04A0020C8450020D0450020984A0020A0
:10528000CC450020744A002030B587B00B9C7CB11F
:105290000C9DB5B15C250495049D5C2D1AD04FF092
:1052A000500383F31188BFF36F8FBFF34F8FFEE777
:1052B0004FF0500383F31188BFF36F8FBFF34F8F0D
:1052C000FEE74FF0500383F31188BFF36F8FBFF3F6
:1052D0004F8FFEE7049D0C9D2C63022485F85940F6
:1052E00000240394029505AC01940A9C0094FFF7F6
:1052F00059FE0C98FFF7DEFE059807B030BD2DE98A
:10530000F04385B00746884614461E469000FFF7D6
:1053100021FA00B381465C20FFF71CFA0546B0B1C4
:10532000C0F83090E5B1002385F859300393029519
:105330000D9B01930C9B0093334622464146384611
:10534000FFF730FE2846FFF7B5FE012005E048468E
:10535000FFF77EFAE6E74FF0FF3005B0BDE8F083D7
:105360004FF0FF30F9E7000010B588B00024059435
:10537000069407AA06A905A8FEF76EFF059B0293EF
:10538000069B019300942346079A18491848FFF793
:105390007BFF184B186040B100F026FB012806D0B7
:1053A000B0F1FF3F18D008B010BD0020F6E74FF075
:1053B000500383F31188BFF36F8FBFF34F8F0E4BF2
:1053C0004FF0FF321A600D4B01221A600C4B002285
:1053D0001A60FFF7A1F8E6E74FF0500383F3118856
:1053E000BFF36F8FBFF34F8FFEE700BFD8C9000830
:1053F000E5510008704A0020744A0020944A0020B9
:10540000C04A0020024A136801331360704700BF8E
:105410003C4A0020014B1868704700BFC04A00207A
:10542000F8B53A4B1B68002B69D1394B1D68013523
:105430001D60C5B9374B1B681B6843B14FF0500363
:1054400083F31188BFF36F8FBFF34F8FFEE7314AAD
:105450001168314B186810601960304A13680133C5
:105460001360FFF789FD2E4B1B68AB423DD9002727
:105470002C4B1B68DB6A03EB83039A002A4B9B5877
:10548000012B00D90127294B1B68002B3CD0012799
:105490003AE001271F4B1B681B6843B31D4B1B6879
:1054A000DB68DC6863689D4226D3261D3046FEF724
:1054B0001DFFA36A1BB104F11800FEF717FFE36A92
:1054C0001B4A1268934201D9194A136003EB830304
:1054D0009A00314614481044FEF7E4FEE26A114B8C
:1054E0001B68DB6A9A42D4D2D4E70027D2E70C4B80
:1054F0004FF0FF321A60BBE7094A1360B8E70D4A64
:1055000013680133136000273846F8BD3C4A002079
:10551000C04A0020CC450020D0450020784A002019
:10552000744A0020C8450020D4450020C44A002009
:10553000444A00207C4A002038B5354B1B6843B9EB
:105540004FF0500383F31188BFF36F8FBFF34F8F7A
:10555000FEE7FEF747FF2E4B1A68013A1A601B68F8
:10556000002B4FD12B4B1B680BB900244BE00024C0
:10557000294B1B681BB3284BDB68DC6804F118005F
:10558000FEF7B4FE251D2846FEF7B0FEE06A234B69
:105590001B68984201D9214B186000EB8000294616
:1055A0001F4B03EB8000FEF77DFEE26A1D4B1B687C
:1055B000DB6A9A42DCD31C4B01221A60D8E70CB19B
:1055C000FFF7DAFC194B1C6884B9174B1C68D4B17F
:1055D0004FF0E0234FF08052C3F8042DBFF34F8FFC
:1055E000BFF36F8F01240EE0013C07D0FFF718FFD7
:1055F0000028F9D00C4B01221A60F5E70B4B002272
:105600001A60E2E70024FEF70FFF204638BD00BF16
:105610003C4A0020344A0020804A0020444A0020AE
:10562000D4450020C8450020C44A00207C4A002000
:105630001F4B1B681BB11F4B01221A6070471D4B8B
:1056400000221A601C4B1B6803EB83018A001B4974
:105650008A585AB90BB1013BF6E74FF0500383F378
:105660001188BFF36F8FBFF34F8FFEE703EB83000B
:1056700082000A4450684068506003EB830C4FEA94
:105680008C020832114488420BD003EB8302910054
:105690000A4A0A445268D168094A1160064A1360EE
:1056A0007047406862469100044A0A445060ECE743
:1056B0003C4A0020C44A0020444A0020D44500202F
:1056C000C845002058B110B50C46094A1168183178
:1056D000FEF7F3FD01212046FFF798FD10BD4FF0C6
:1056E000500383F31188BFF36F8FBFF34F8FFEE733
:1056F000C845002038B570B10D4614460A4A1168F5
:105700001831FEF7CFFD0CB14FF0FF35214628468A
:10571000FFF77CFD38BD4FF0500383F31188BFF3D2
:105720006F8FBFF34F8FFEE7C845002038B5C368C1
:10573000DC6824B304F118052846FEF7D7FD184BA2
:105740001B682BBB251D2846FEF7D0FDE06A154BD4
:105750001B68984201D9134B186000EB8000294662
:10576000114B03EB8000FEF79DFDE26A0F4B1B68B7
:10577000DB6A9A4211D901200D4B186038BD4FF0F9
:10578000500383F31188BFF36F8FBFF34F8FFEE792
:1057900029460848FEF786FDE7E70020EEE700BF50
:1057A0003C4A0020444A0020D4450020C84500203F
:1057B000C44A0020804A0020034B1B680360034B4F
:1057C0001B684360704700BF784A0020C04A002031
:1057D000F8B5C8B10C460546F9B1FEF703FE1B4B00
:1057E00019686B68C81A2268B2F1FF3F26D0184EBC
:1057F00036682F68B74201D08B4224D9824215D82F
:105800000023236001241AE04FF0500383F3118832
:10581000BFF36F8FBFF34F8FFEE74FF0500383F35B
:105820001188BFF36F8FBFF34F8FFEE75B1A1344EE
:1058300023602846FFF7C0FF002400E00024FEF7A5
:10584000F3FD2046F8BD0124F9E700BFC04A00205F
:10585000784A0020014B01221A607047C44A002098
:10586000054B1B6833B1054B1B680BB1002070471B
:105870000220704701207047944A00203C4A0020D3
:1058800000283BD038B504461E4B1B68834208D025
:105890004FF0500383F31188BFF36F8FBFF34F8F27
:1058A000FEE7036D43B94FF0500383F31188BFF354
:1058B0006F8FBFF34F8FFEE7013B0365C16AC26C78
:1058C00091421DD00BB1002038BD051D2846FEF7C2
:1058D0000DFDE06CE062C0F13803A3610A4B1B6868
:1058E000984201D9084B186000EB80002946074B0D
:1058F00003EB8000FEF7D6FC0120E5E700207047AF
:105900000020E1E7C8450020444A0020D44500209B
:10591000064B1A6813682BB90123036023B9D368B7
:10592000186870470023F8E700207047C84A002035
:1059300008B54160006191420CD8D21A83699A423D
:1059400001D3012008BD011D094B1868FEF7B5FC05
:105950000020F7E79A4201D2994206D2011D054B79
:105960001868FEF7AAFC0020ECE70120EAE700BF78
:10597000CC4A0020C84A002030B583B0FEF732FD83
:10598000114B1B681BB1FEF74FFD03B030BD0F4D2F
:105990002846FEF779FC0E4C2046FEF775FC0D4BB1
:1059A0001D600D4B1C60002300930C4B0C4A102112
:1059B0000A20FFF77EF8044B18600028E3D009495D
:1059C000FFF79CFADFE700BFEC4B0020704B002094
:1059D000844B0020C84A0020CC4A00209C4B002069
:1059E000D04A0020E0C9000810B588B0FFF7C4FF16
:1059F000124B1B68CBB100240594069407AA06A994
:105A000005A8FEF735FC059B0293069B0193022334
:105A100000932346079A0A490A48FFF735FC0A4BC8
:105A2000186010B1012008B010BD4FF0500383F38F
:105A30001188BFF36F8FBFF34F8FFEE7EC4B002051
:105A4000E8C900084D5D0008F04B0020B8B19C4645
:105A500003461848006858B300B585B0009101921C
:105A6000029305291CDCFFF7FBFE022810D000235F
:105A70001A4669460F480068FFF765F815E04FF0D1
:105A8000500383F31188BFF36F8FBFF34F8FFEE78F
:105A90000023069A694607480068FFF754F804E0B7
:105AA000002362466946FFF712F905B05DF804FB72
:105AB00000207047EC4B002070B582B01B4B1B6878
:105AC0001A6862B3DB681E68DC68251D2846FEF78D
:105AD0000DFC236A2046984794F8283013F0040FF1
